:100000000C942A000C947D110C94DB110C940F12AB
:100010000C94230F0C94BF0E0C9447000C944700D3
:100020000C9447000C9447000C945B0E0C9427260C
:100030000C9447000C9447000C9447000C94470024
:100040000C945B190C9447000C9447000C944700E7
:100050000C94470011241FBECFE5D8E0DEBFCDBF12
:1000600011E0A0E6B0E0E6E1FEE402C005900D92EA
:10007000A43BB107D9F712E0A4EBB1E001C01D9297
:10008000A331B107E1F70E94D1230C9409270C9406
:100090000000EF92FF920F931F937B018C0120E0F1
:1000A00030E040E05FE40E94250488238CF0C80122
:1000B000B70120E030E040E05FE40E94C1010E940F
:1000C00085049B01AC01205030404040504806C0A0
:1000D000C801B7010E9485049B01AC01B901CA01A6
:1000E0001F910F91FF90EF900895A0E0B0E0EBE733
:1000F000F0E00C948526DC012B01FA019C919230F2
:1001000008F439C1EB018881823008F433C194309E
:1001100069F4843009F02FC111969C91119789815F
:10012000981709F428C1A6E8B0E025C1843009F485
:1001300021C18230A9F4923009F01DC19A01AD01AC
:1001400088E0EA010990AE01E90109929E0181501F
:10015000C1F7E201898111969C918923818308C1AD
:10016000923009F407C112962D903C901397EB0141
:100170008A819B811496AD90BD90CD90DC901797AD
:10018000EC80FD800E811F819101281B390BB90184
:1001900037FF04C066277727621B730B6032710537
:1001A0000CF061C0121613066CF537014801062EDB
:1001B00004C096948794779467940A94D2F721E0C8
:1001C00030E040E050E004C0220F331F441F551FB1
:1001D0006A95D2F721503040404050402E213F21B7
:1001E00040235123211531054105510521F021E01E
:1001F00030E040E050E079018A01E628F72808293C
:1002000019293CC0232BD1F1260E371E350146019A
:10021000062E04C096948794779467940A94D2F734
:1002200021E030E040E050E004C0220F331F441FC3
:10023000551F6A95D2F721503040404050402A2146
:100240003B214C215D21211531054105510521F04E
:1002500021E030E040E050E059016A01A628B728CB
:10026000C828D9280BC0821593052CF01C01AA249C
:10027000BB24650103C0EE24FF24870111969C91E5
:10028000D20111968C91981709F445C0992339F041
:10029000A80197012A193B094C095D0906C0A6016E
:1002A00095012E193F09400B510B57FD08C01182D3
:1002B0003382228224833583468357831DC081E0A5
:1002C00081833382228288279927DC01821B930B4A
:1002D000A40BB50B84839583A683B7830DC0220F2F
:1002E000331F441F551F24833583468357838281E0
:1002F000938101979383828324813581468157813D
:10030000DA01C9010197A109B1098F5F9F4FAF4F72
:10031000BF4328F30BC0918333822282EA0CFB1C7B
:100320000C1D1D1DE482F5820683178383E0808304
:10033000248135814681578157FF1AC0C901AA27F8
:1003400097FDA095BA2F81709070A070B0705695EF
:10035000479537952795822B932BA42BB52B848318
:100360009583A683B7838281938101969383828349
:10037000DF0101C0D201CD01CDB7DEB7E2E10C94BF
:10038000A126A0E2B0E0E7ECF1E00C9491266983AD
:100390007A838B839C832D833E834F835887E9E048
:1003A000EE2EF12CEC0EFD1ECE010196B7010E943F
:1003B00076068E010F5E1F4FCE010596B8010E9492
:1003C00076068A8991E089278A8BC701B801AE0138
:1003D000475E5F4F0E9475000E94A105A096E6E06F
:1003E0000C94AD26A0E2B0E0E8EFF1E00C94912689
:1003F00069837A838B839C832D833E834F835887C5
:10040000F9E0EF2EF12CEC0EFD1ECE010196B701A6
:100410000E9476068E010F5E1F4FCE010596B80131
:100420000E947606C701B801AE01475E5F4F0E9489
:1004300075000E94A105A096E6E00C94AD26A0E20E
:10044000B0E0E5E2F2E00C94852669837A838B8341
:100450009C832D833E834F835887CE010196BE0136
:10046000675F7F4F0E947606CE010596BE016F5EE4
:100470007F4F0E9476069985923088F08989823074
:10048000C8F0943019F4823051F404C0843029F457
:10049000923081F486E890E0C6C0923049F420E0C2
:1004A0009A858A89981321E02A87CE010996BBC0D4
:1004B000823049F420E09A858A89981321E02A8BBA
:1004C000CE014196B0C02D843E844F8458886D88FB
:1004D0007E888F88988CEE24FF248701AA24BB2471
:1004E000650140E050E060E070E0E0E0F0E0C10174
:1004F00081709070892BE9F0E60CF71C081D191D1E
:100500009A01AB012A0D3B1D4C1D5D1D80E090E062
:10051000A0E0B0E0E614F7040805190520F481E036
:1005200090E0A0E0B0E0BA01A901480F591F6A1F8E
:100530007B1FAA0CBB1CCC1CDD1C97FE08C081E0F5
:1005400090E0A0E0B0E0A82AB92ACA2ADB2A3196B6
:10055000E032F10549F0660C771C881C991C569412
:10056000479437942794C3CFFA85EA892B893C892D
:100570008B859C85280F391F2E5F3F4F17C0CA01FE
:1005800081709070892B61F016950795F794E79428
:1005900080E090E0A0E0B0E8E82AF92A0A2B1B2BC3
:1005A00076956795579547952F5F3F4F77FDE7CF36
:1005B0000CC0440F551F661F771F17FD4160EE0CDE
:1005C000FF1C001F111F21503040403090E05907A0
:1005D00090E0690790E4790760F32B8F3C8FDB0193
:1005E000CA018F779070A070B07080349105A1051A
:1005F000B10561F447FD0AC0E114F10401051105DC
:1006000029F0405C5F4F6F4F7F4F40781A8EFE1786
:1006100011F081E08A8F4D8F5E8F6F8F78A383E01A
:10062000898FCE0149960E94A105A096E2E10C9423
:10063000A126A8E1B0E0EFE1F3E00C948D266983F8
:100640007A838B839C832D833E834F835887B9E0C5
:10065000EB2EF12CEC0EFD1ECE010196B7010E948F
:1006600076068E010F5E1F4FCE010596B8010E94DF
:1006700076062985223008F47EC03989323010F49C
:10068000B8017CC08A859A8989278A87243011F02D
:10069000223031F4231709F06EC066E870E06EC0B6
:1006A000343039F41D861E861F86188A1C861B86E8
:1006B00004C0323021F484E08987B7015FC02B8504
:1006C0003C858B899C89281B390B3C872B87ED84C3
:1006D000FE840F851889AD88BE88CF88D88CEA142F
:1006E000FB040C051D0540F4EE0CFF1C001F111F40
:1006F000215030403C872B8720E030E040E050E044
:1007000080E090E0A0E0B0E460E070E0EA14FB0478
:100710000C051D0540F0282B392B4A2B5B2BEA18C2
:10072000FB080C091D09B695A79597958795EE0CC2
:10073000FF1C001F111F6F5F7F4F6F31710531F775
:10074000DA01C9018F779070A070B0708034910584
:10075000A105B10561F427FD0AC0E114F10401050A
:10076000110529F0205C3F4F4F4F5F4F20782D87B8
:100770003E874F87588BBE01675F7F4FCB010E943A
:10078000A1056896EAE00C94A926A8E1B0E0EBEC9C
:10079000F3E00C94912669837A838B839C832D8369
:1007A0003E834F83588789E0E82EF12CEC0EFD1E26
:1007B000CE010196B7010E9476068E010F5E1F4F93
:1007C000CE010596B8010E9476068985823040F0F8
:1007D0008989823028F0C701B8010E94EE0601C065
:1007E00081E06896E6E00C94AD26A8E1B0E0EBEF7E
:1007F000F3E00C94912669837A838B839C832D8309
:100800003E834F83588789E0E82EF12CEC0EFD1EC5
:10081000CE010196B7010E9476068E010F5E1F4F32
:10082000CE010596B8010E9476068985823040F097
:100830008989823028F0C701B8010E94EE0601C004
:100840008FEF6896E6E00C94AD26A8E1B0E0EBE20D
:10085000F4E00C94912669837A838B839C832D83A7
:100860003E834F83588789E0E82EF12CEC0EFD1E65
:10087000CE010196B7010E9476068E010F5E1F4FD2
:10088000CE010596B8010E9476068985823040F037
:100890008989823028F0C701B8010E94EE0601C0A4
:1008A0008FEF6896E6E00C94AD26A8E1B0E0EBE5AA
:1008B000F4E00C94912669837A838B839C832D8347
:1008C0003E834F83588789E0E82EF12CEC0EFD1E05
:1008D000CE010196B7010E9476068E010F5E1F4F72
:1008E000CE010596B8010E9476068985823040F0D7
:1008F0008989823028F0C701B8010E94EE0601C044
:1009000081E06896E6E00C94AD26ACE0B0E0EBE860
:10091000F4E00C94952669837A838B839C83CE01C3
:100920000196BE016B5F7F4F0E9476068D818230FB
:1009300061F1823050F1843021F48E81882351F1AD
:100940002EC02F81388537FD20C06E812F313105B3
:100950001CF06623F9F023C08EE190E0821B930B1C
:1009600029853A854B855C8504C056954795379512
:1009700027958A95D2F76623B1F05095409530952A
:1009800021953F4F4F4F5F4F0EC020E030E040E0D9
:1009900050E009C02FEF3FEF4FEF5FE704C020E0CA
:1009A00030E040E050E8B901CA012C96E2E00C9436
:1009B000B126A8E0B0E0EFEDF4E00C948D267B01C9
:1009C0008C01611571058105910519F482E0898317
:1009D00060C083E089838EE1C82ED12CDC82CB827B
:1009E000ED82FE820F831887C801B7010E9452056D
:1009F000FC013197F7FF3BC0222733272E1B3F0B0B
:100A000057016801022E04C0D694C794B794A794E6
:100A10000A94D2F740E050E060E070E081E090E0BE
:100A2000A0E0B0E004C0880F991FAA1FBB1F2A9541
:100A3000D2F70197A109B1098E219F21A023B123EB
:100A40000097A105B10521F041E050E060E070E0C1
:100A50004A295B296C297D294D835E836F837887C2
:100A60008EE190E08E1B9F0B9C838B8312C030978E
:100A700081F00E2E04C0EE0CFF1C001F111F0A9403
:100A8000D2F7ED82FE820F831887CE1ADF0ADC824E
:100A9000CB821A82CE0101960E94A1052896EAE037
:100AA0000C94A926EF92FF920F931F937B018C0168
:100AB00080E0E81680E0F80681E0080780E018078B
:100AC00088F48FEFE816F1040105110531F028F0E4
:100AD00088E090E0A0E0B0E017C080E090E0A0E007
:100AE000B0E012C080E0E81680E0F80680E0080779
:100AF00081E0180728F088E190E0A0E0B0E004C0B1
:100B000080E190E0A0E0B0E020E230E040E050E0A2
:100B1000281B390B4A0B5B0B04C016950795F794FD
:100B2000E7948A95D2F7F701E257FF4F8081281B9F
:100B3000310941095109C9011F910F91FF90EF90AF
:100B40000895DF92EF92FF920F931F93FC01E480D0
:100B5000F58006811781D1808081823048F480E061
:100B600090E0A0E1B0E0E82AF92A0A2B1B2BA5C0EF
:100B7000843009F49FC0823021F4EE24FF248701E1
:100B800005C0E114F1040105110519F4E0E0F0E0FD
:100B900096C0628173819FEF623879070CF05BC069
:100BA00022E83FEF261B370B2A3131052CF020E0DD
:100BB00030E040E050E02AC0B801A701022E04C096
:100BC00076956795579547950A94D2F781E090E01E
:100BD000A0E0B0E004C0880F991FAA1FBB1F2A9590
:100BE000D2F70197A109B1098E219F21A023B1233A
:100BF0000097A105B10521F081E090E0A0E0B0E010
:100C00009A01AB01282B392B4A2B5B2BDA01C90146
:100C10008F779070A070B07080349105A105B105F8
:100C200039F427FF09C0205C3F4F4F4F5F4F04C08E
:100C3000215C3F4F4F4F5F4FE0E0F0E02030A0E0FD
:100C40003A07A0E04A07A0E45A0710F0E1E0F0E01C
:100C500079018A0127C06038710564F5FB01E1580C
:100C6000FF4FD801C7018F779070A070B0708034AB
:100C70009105A105B10539F4E7FE0DC080E490E0CF
:100C8000A0E0B0E004C08FE390E0A0E0B0E0E80EA8
:100C9000F91E0A1F1B1F17FF05C016950795F7942D
:100CA000E794319687E016950795F794E7948A952F
:100CB000D1F705C0EE24FF248701EFEFF0E06E2F9F
:100CC000679566276795902F9F77D794DD24D794F3
:100CD0008E2F8695492F462B582F5D29B701CA01C3
:100CE0001F910F91FF90EF90DF900895FC01DB01C1
:100CF000408151812281622F6F7770E0221F22276D
:100D0000221F9381892F880F822B282F30E0991F73
:100D10009927991F11969C93119721153105A9F5D3
:100D2000411551056105710511F482E037C082E873
:100D30009FEF13969C938E9312979A01AB0167E0F5
:100D4000220F331F441F551F6A95D1F783E08C9300
:100D50000DC0220F331F441F551F12968D919C9179
:100D60001397019713969C938E931297203080E0EF
:100D7000380780E0480780E4580758F314962D930D
:100D80003D934D935C93179708952F3F310579F468
:100D9000411551056105710519F484E08C9308959E
:100DA00064FF03C081E08C9312C01C9210C02F57C7
:100DB000304013963C932E93129783E08C9387E0F8
:100DC000440F551F661F771F8A95D1F770641496DC
:100DD0004D935D936D937C93179708951F93DC015A
:100DE000FB019C91923008F447C08081823008F466
:100DF00043C0943051F411961C91843099F581814F
:100E0000682F70E0611B71093FC0843021F092307F
:100E100031F48230B9F18181882389F12DC0119696
:100E20001C9111978230F1F081811817D9F4129634
:100E30002D913C911397828193818217930794F0AF
:100E400028173907BCF014968D919D910D90BC9197
:100E5000A02D2481358146815781281739074A07FB
:100E60005B0718F4112341F00AC082179307A40707
:100E7000B50740F4112319F061E070E005C06FEF91
:100E80007FEF02C060E070E0CB011F910895DF9317
:100E9000CF9300D0CDB7DEB79A838983E0E4F0E04A
:100EA00089819A81892F99278083E9E2F0E08981FD
:100EB0008083AAE2B0E0EAE2F0E0808188618C936E
:100EC000A0E4B0E0E0E4F0E080818F7B8C93A0E4CC
:100ED000B0E0E0E4F0E0808180688C93A0E4B0E0D2
:100EE000E0E4F0E0808186608C93AAE2B0E0EAE280
:100EF000F0E080818B7F8C93A0E4B0E0E0E4F0E050
:100F00008081877F8C930F900F90CF91DF91089510
:100F1000DF93CF930F92CDB7DEB78983EBE2F0E09A
:100F20008081882F90E0807290700097B9F3ECE296
:100F3000F0E0898180830F90CF91DF910895DF9356
:100F4000CF93CDB7DEB7EBE2F0E080818823DCF70A
:100F5000ABE2B0E0EBE2F0E0808180688C93ECE201
:100F6000F0E08081CF91DF910895DF93CF9300D09F
:100F70000F92CDB7DEB79B838A8319820EC0898119
:100F8000282F30E08A819B81FC01E20FF31F8081D2
:100F90000E94880789818F5F89838981282F30E0AB
:100FA0008A819B81FC01E20FF31F8081882339F73E
:100FB0000F900F900F90CF91DF910895DF93CF9313
:100FC000CDB7DEB7AFE5B0E0EFE5F0E08081806857
:100FD0008C93A3E5B0E0E3E5F0E080818E7F8C9315
:100FE000A3E5B0E0E3E5F0E0808182608C93A3E5C7
:100FF000B0E0E3E5F0E080818B7F8C93A3E5B0E087
:10100000E3E5F0E080818F7B8C93A3E5B0E0E3E53E
:10101000F0E08081877F8C93A9E5B0E0E9E5F0E01E
:10102000808181608C93A5E4B0E0E5E4F0E080810C
:101030008E7F8C93A5E4B0E0E5E4F0E080818D7FC5
:101040008C93A5E4B0E0E5E4F0E080818B7F8C93A5
:10105000AEE4B0E0EEE4F0E080818E7F8C93AEE40D
:10106000B0E0EEE4F0E080818D7F8C93AEE4B0E000
:10107000EEE4F0E080818B7F8C93CF91DF91089537
:10108000DF93CF93CDB7DEB76F970FB6F894DEBF7F
:101090000FBECDBF898F4A8F5B8F6C8F7D8F3F8F47
:1010A0002E8F898D813009F027C180E090E0A0E883
:1010B000B3E48D8B9E8BAF8BB88F80E090E0A0E087
:1010C000B0E0898B9A8BAB8BBC8B80E091E0988BE6
:1010D0008F871E861D866D897E898F89988D20E079
:1010E00030E040E051E40E941F02DC01CB018D8B17
:1010F0009E8BAF8BB88F6D897E898F89988D20E00C
:1011000034E244EF5AE40E941903DC01CB018D8BD9
:101110009E8BAF8BB88F6A8D7B8D8C8D9D8D2D892D
:101120003E894F89588D0E941903DC01CB01898BC0
:101130009A8BAB8BBC8B8E8D9F8D9093F50180939A
:10114000F4018F859889CC01A0E0B0E0BC01CD010D
:101150000E94D904DC01CB01BC01CD012A8D3B8D5D
:101160004C8D5D8D0E941F02DC01CB01BC01CD01C5
:101170000E944900DC01CB01988B8F878F8598896D
:10118000CC01A0E0B0E0BC01CD010E94D904DC019B
:10119000CB01BC01CD012D893E894F89588D0E941C
:1011A0001903DC01CB01BC01CD010E944900DC0127
:1011B000CB01988B8F8769897A898B899C8920E0FC
:1011C00030E040E85FE30E9455048823DCF420E02F
:1011D00031E08F859889A901481B590BCA019E8768
:1011E0008D87E2E5F0E08D85808381E090E0A0E0EE
:1011F000B0E08093B4019093B501A093B601B09391
:10120000B70194C169897A898B899C890E944900B8
:10121000DC01CB018093B4019093B501A093B6019A
:10122000B093B70169897A898B899C890E944900AA
:10123000DC01CB01BC01CD010E94D9049B01AC01B2
:1012400069897A898B899C890E94C101DC01CB0163
:10125000BC01CD0120E030E040E050E00E94C50339
:10126000882309F463C18F859889CC01A0E0B0E0A0
:10127000BC01CD010E94D904DC01CB01BC01CD0130
:1012800020E030E040E853E40E941903DC01CB0188
:10129000BC01CD0120E030E040E853E40E941F0291
:1012A000DC01CB01BC01CD010E944900DC01CB0176
:1012B000988B8F8720E031E08F859889A901481BA2
:1012C000590BCA019E878D87E2E5F0E08D8580830A
:1012D0008091B4019091B501A091B601B091B70190
:1012E0000196A11DB11D8093B4019093B501A09307
:1012F000B601B093B7011AC1898D843009F416C1C3
:10130000898D863009F012C180E09FEFAFE7B7E426
:1013100089879A87AB87BC8780E090E0A0E0B0E047
:101320008D839E83AF83B8878FEF9FEF9C838B83E2
:101330001A82198269857A858B859C8520E034E242
:1013400044EF5AE40E941903DC01CB0189879A8794
:10135000AB87BC876A8D7B8D8C8D9D8D29853A8569
:101360004B855C850E941903DC01CB018D839E8334
:10137000AF83B8878E8D9F8D9093F7018093F60190
:101380008B819C81CC01A0E0B0E0BC01CD010E942A
:10139000D904DC01CB01BC01CD012A8D3B8D4C8DE4
:1013A0005D8D0E941F02DC01CB01BC01CD010E94BA
:1013B0004900DC01CB019C838B838B819C81CC0118
:1013C000A0E0B0E0BC01CD010E94D904DC01CB015A
:1013D000BC01CD0129853A854B855C850E941903A6
:1013E000DC01CB01BC01CD010E944900DC01CB0135
:1013F0009C838B836D817E818F81988520E030E096
:1014000040E85FE30E9455048823CCF48B819C81E3
:10141000809590959A838983ECE4F0E089819A81A4
:101420009183808381E090E0A0E0B0E08093CC01E4
:101430009093CD01A093CE01B093CF0177C06D8181
:101440007E818F8198850E944900DC01CB018093C9
:10145000CC019093CD01A093CE01B093CF016D81CB
:101460007E818F8198850E944900DC01CB01BC01FF
:10147000CD010E94D9049B01AC016D817E818F81D9
:1014800098850E94C101DC01CB01BC01CD0120E0A7
:1014900030E040E050E00E94C503882309F446C0D4
:1014A0008B819C81CC01A0E0B0E0BC01CD010E9409
:1014B000D904DC01CB01BC01CD0120E03FEF4FE7B7
:1014C00057E40E941903DC01CB01BC01CD0120E0EF
:1014D0003FEF4FE757E40E941F02DC01CB01BC0144
:1014E000CD010E944900DC01CB019C838B838B8161
:1014F0009C81809590959A838983ECE4F0E08981C2
:101500009A81918380838091CC019091CD01A091AB
:10151000CE01B091CF010196A11DB11D8093CC01E8
:101520009093CD01A093CE01B093CF016F960FB6EB
:10153000F894DEBF0FBECDBFCF91DF910895DF934A
:10154000CF9300D000D00F92CDB7DEB789837B83D5
:101550006A835D834C838981813039F48A819B81E0
:101560009093FB018093FA0119C08981843039F48A
:101570008A819B819093FD018093FC010FC089813A
:10158000863061F48A819B819093FF018093FE01F4
:101590008C819D8190930102809300020F900F90A7
:1015A0000F900F900F90CF91DF910895DF93CF931D
:1015B00000D000D00F92CDB7DEB789837B836A83DA
:1015C0005D834C838981813039F08981843021F4B5
:1015D000E3E4F0E08A8180830F900F900F900F90EA
:1015E0000F90CF91DF910895EF92FF920F931F9389
:1015F000DF93CF9300D000D0CDB7DEB719821A8227
:101600001B821C821092D0011092D1011092D20143
:101610001092D301A8E5B0E0E8E5F0E080818062B7
:101620008C93AEE4B0E0EEE4F0E0808180648C93D3
:10163000E8E5F0E08081882F90E0807290709595C9
:101640008795959587959595879595958795959582
:101650008795009769F3E6E4F0E0808191817C0151
:1016600000E010E08091D0019091D101A091D201D1
:10167000B091D3012FEF3FEF40E050E0BC01CD012E
:101680000E944426DC01CB018E0D9F1DA01FB11FBF
:101690008093D4019093D501A093D601B093D70144
:1016A000A8E5B0E0E8E5F0E0808180628C93AEE4EC
:1016B000B0E0EEE4F0E080818F7B8C93E8E5F0E031
:1016C0008081882F90E08072907095958795959590
:1016D0008795959587959595879595958795009785
:1016E00069F3E6E4F0E0808191817C0100E010E0A4
:1016F0008091D0019091D101A091D201B091D301FC
:101700002FEF3FEF40E050E0BC01CD010E944426A6
:10171000DC01CB018E0D9F1DA01FB11F8093D8014E
:101720009093D901A093DA01B093DB011092D0011C
:101730001092D1011092D2011092D3012091D801C0
:101740003091D9014091DA015091DB018091D401AF
:101750009091D501A091D601B091D70179018A016C
:10176000E81AF90A0A0B1B0BD801C70189839A836F
:10177000AB83BC8380E092E1AAE7B0E029813A81A3
:101780004B815C81BC01CD010E946326DA01C90155
:101790008093E0019093E101A093E201B093E30113
:1017A0008091E0019091E101A091E201B091E3010B
:1017B000BC01CD010F900F900F900F90CF91DF9152
:1017C0001F910F91FF90EF900895EF92FF920F936A
:1017D0001F93DF93CF93CDB7DEB72C970FB6F89456
:1017E000DEBF0FBECDBF19861A861B861C861D82E2
:1017F0001E821F82188680E090E0A0E0B0E089831E
:101800009A83AB83BC831092D0011092D1011092C5
:10181000D2011092D301A8E5B0E0E8E5F0E08081C4
:1018200080628C93AEE4B0E0EEE4F0E0808180640E
:101830008C93E8E5F0E08081882F90E080729070D2
:101840009595879595958795959587959595879580
:1018500095958795009769F3E6E4F0E080819181A2
:101860007C0100E010E08091D0019091D101A09125
:10187000D201B091D3012FEF3FEF40E050E0BC0127
:10188000CD010E944426DC01CB018E0D9F1DA01FBF
:10189000B11F8093D4019093D501A093D601B0934A
:1018A000D701A8E5B0E0E8E5F0E0808180628C93A4
:1018B000AEE4B0E0EEE4F0E080818F7B8C93E8E56D
:1018C000F0E08081882F90E08072907095958795E8
:1018D00095958795959587959595879595958795F0
:1018E000009769F3E6E4F0E0808191817C0100E0FB
:1018F00010E08091D0019091D101A091D201B091DE
:10190000D3012FEF3FEF40E050E0BC01CD010E943A
:101910004426DC01CB018E0D9F1DA01FB11F8093BB
:10192000D8019093D901A093DA01B093DB01A8E527
:10193000B0E0E8E5F0E0808180628C93AEE4B0E056
:10194000EEE4F0E0808180648C93E8E5F0E0808153
:10195000882F90E0807290709595879595958795E2
:10196000959587959595879595958795009769F3B2
:10197000E6E4F0E0808191817C0100E010E080915C
:10198000D0019091D101A091D201B091D3012FEF5C
:101990003FEF40E050E0BC01CD010E944426DC0155
:1019A000CB018E0D9F1DA01FB11F8093DC01909372
:1019B000DD01A093DE01B093DF01A8E5B0E0E8E52A
:1019C000F0E0808180628C931092D0011092D1015E
:1019D0001092D2011092D3012091D8013091D901F7
:1019E0004091DA015091DB018091D4019091D501B1
:1019F000A091D601B091D70179018A01E81AF90ABC
:101A00000A0B1B0BD801C7018D839E83AF83B88758
:101A10002091DC013091DD014091DE015091DF0128
:101A20008091D4019091D501A091D601B091D701B8
:101A300079018A01E81AF90A0A0B1B0BD801C701C0
:101A400089879A87AB87BC878D819E81AF81B88556
:101A500024E630E040E050E0BC01CD010E94442685
:101A6000DC01CB01BC01CD010E94D904DC01CB011A
:101A700089839A83AB83BC8369857A858B859C85B2
:101A80000E94D9049B01AC0169817A818B819C8180
:101A90000E941903DC01CB0189839A83AB83BC8349
:101AA00089819A81AB81BC81BC01CD012C960FB696
:101AB000F894DEBF0FBECDBFCF91DF911F910F9184
:101AC000FF90EF900895EF92FF920F931F93DF9393
:101AD000CF9300D000D0CDB7DEB719821A821B8217
:101AE0001C821092D0011092D1011092D20110925A
:101AF000D301A8E5B0E0E8E5F0E0808180628C9356
:101B0000AEE4B0E0EEE4F0E0808180648C93E8E540
:101B1000F0E08081882F90E0807290709595879595
:101B2000959587959595879595958795959587959D
:101B3000009769F3E6E4F0E0808191817C0100E0A8
:101B400010E08091D0019091D101A091D201B0918B
:101B5000D3012FEF3FEF40E050E0BC01CD010E94E8
:101B60004426DC01CB018E0D9F1DA01FB11F809369
:101B7000D4019093D501A093D601B093D701A8E5E5
:101B8000B0E0E8E5F0E0808180628C93AEE4B0E004
:101B9000EEE4F0E0808180648C93E8E5F0E0808101
:101BA000882F90E080729070959587959595879590
:101BB000959587959595879595958795009769F360
:101BC000E6E4F0E0808191817C0100E010E080910A
:101BD000D0019091D101A091D201B091D3012FEF0A
:101BE0003FEF40E050E0BC01CD010E944426DC0103
:101BF000CB018E0D9F1DA01FB11F8093DC01909320
:101C0000DD01A093DE01B093DF01A8E5B0E0E8E5D7
:101C1000F0E0808180628C931092D0011092D1010B
:101C20001092D2011092D3012091DC013091DD019C
:101C30004091DE015091DF018091D4019091D50156
:101C4000A091D601B091D70179018A01E81AF90A69
:101C50000A0B1B0BD801C70189839A83AB83BC8312
:101C600080E092E1AAE7B0E029813A814B815C8172
:101C7000BC01CD010E946326DA01C9018093E40111
:101C80009093E501A093E601B093E7018091E40110
:101C90009091E501A091E601B091E701BC01CD0171
:101CA0000F900F900F900F90CF91DF911F910F9198
:101CB000FF90EF90089578941F920F920FB60F92B5
:101CC00011242F933F934F935F936F937F938F9341
:101CD0009F93AF93BF93EF93FF93DF93CF93CDB7D2
:101CE000DEB78091E8019091E901A091EA01B091FD
:101CF000EB010196A11DB11D8093E8019093E901CC
:101D0000A093EA01B093EB012091E8013091E90141
:101D10004091EA015091EB018091B8019091B90195
:101D2000A091BA01B091BB01281739074A075B0798
:101D300099F48091FA019091FB01009769F0E0918C
:101D4000FA01F091FB0109951092E8011092E90166
:101D50001092EA011092EB01CF91DF91FF91EF9188
:101D6000BF91AF919F918F917F916F915F914F91B3
:101D70003F912F910F900FBE0F901F901895789460
:101D80001F920F920FB60F9211242F933F934F93F0
:101D90005F936F937F938F939F93AF93BF93EF93D3
:101DA000FF93DF93CF93CDB7DEB78091EC01909195
:101DB000ED01A091EE01B091EF010196A11DB11DC1
:101DC0008093EC019093ED01A093EE01B093EF01AD
:101DD0002091EC013091ED014091EE015091EF0125
:101DE0008091BC019091BD01A091BE01B091BF0155
:101DF000281739074A075B0799F48091F8019091F9
:101E0000F901009769F0E091F801F091F901099565
:101E10001092EC011092ED011092EE011092EF0180
:101E2000CF91DF91FF91EF91BF91AF919F918F91F2
:101E30007F916F915F914F913F912F910F900FBEC6
:101E40000F901F90189578941F920F920FB60F92D3
:101E500011242F933F934F935F936F937F938F93AF
:101E60009F93AF93BF93EF93FF93DF93CF93CDB740
:101E7000DEB78091F0019091F101A091F201B09153
:101E8000F3010196A11DB11D8093F0019093F10122
:101E9000A093F201B093F3012091F0013091F10190
:101EA0004091F2015091F3018091C0019091C101E4
:101EB000A091C201B091C301281739074A075B07F7
:101EC00099F48091FC019091FD01009769F0E091F7
:101ED000FC01F091FD0109951092F0011092F101C1
:101EE0001092F2011092F301CF91DF91FF91EF91E7
:101EF000BF91AF919F918F917F916F915F914F9122
:101F00003F912F910F900FBE0F901F901895DF9368
:101F1000CF93CDB7DEB7E1E2F0E01082E0E2F0E08F
:101F200080E28083E6E5F0E084E08083CF91DF917A
:101F30000895DF93CF93CDB7DEB7E6E5F0E084EA0E
:101F40008083E6E5F0E080818823DCF7CF91DF91A4
:101F50000895DF93CF93CDB7DEB7E6E5F0E084E9EF
:101F60008083E6E5F0E08081882F90E080719070BA
:101F70000097B9F7CF91DF910895DF93CF930F9238
:101F8000CDB7DEB78983E3E2F0E089818083E6E5BF
:101F9000F0E084E88083E6E5F0E080818823DCF7E8
:101FA0000F90CF91DF910895DF93CF93CDB7DEB738
:101FB000E6E5F0E084EC8083E6E5F0E080818823CC
:101FC000DCF7E3E2F0E08081CF91DF910895DF93C9
:101FD000CF93CDB7DEB7E6E5F0E084E88083E6E5B1
:101FE000F0E080818823DCF7E3E2F0E08081CF91AC
:101FF000DF910895DF93CF93CDB7DEB7E1E2F0E054
:102000008081887FCF91DF9108950F931F93DF9395
:10201000CF9300D000D0CDB7DEB78A837C836B83AB
:1020200019820E94990F80EA0E94BD0F8A810E9446
:10203000BD0F0E94990F81EA0E94BD0F0CC08981DB
:10204000082F10E00E94D40FF801E257FE4F808362
:1020500089818F5F89838981282F30E08B819C81E2
:10206000FC01E20FF31F8081882349F70E94A90F2A
:102070000F900F900F900F90CF91DF911F910F91C4
:102080000895DF93CF93CDB7DEB762970FB6F8947C
:10209000DEBF0FBECDBF888B7A8B698B1F860E94F7
:1020A000990F80EA0E94BD0F88890E94BD0F0EC063
:1020B0008F85282F30E089899A89FC01E20FF31F70
:1020C00080810E94BD0F8F858F5F8F878F85282F1E
:1020D00030E089899A89FC01E20FF31F808188230F
:1020E00039F70E94A90F80E090E0A0E2B1E48B876D
:1020F0009C87AD87BE876B857C858D859E8520E01E
:1021000030E04AEF54E40E941F02DC01CB018F83D0
:102110009887A987BA876F81788589859A8520E015
:1021200030E040E85FE30E94550488232CF481E00E
:1021300090E09E838D833FC06F81788589859A85E5
:1021400020E03FEF4FE757E40E94F50318164CF5E7
:102150006B857C858D859E8520E030E040E251E4F2
:102160000E941F02DC01CB01BC01CD010E9449008D
:10217000DC01CB019E838D830FC088EC90E09C83B3
:102180008B838B819C810197F1F79C838B838D815D
:102190009E8101979E838D838D819E81009769F733
:1021A00014C06F81788589859A850E944900DC0179
:1021B000CB019E838D838D819E819A8389838981C2
:1021C0009A810197F1F79A83898362960FB6F89402
:1021D000DEBF0FBECDBFCF91DF910895DF93CF93C8
:1021E000CDB7DEB7AFE5B0E0EFE5F0E08081806825
:1021F0008C93ABE5B0E0EBE5F0E0808180648C93FC
:10220000A5E5B0E0E5E5F0E080818E7F8C93A5E563
:10221000B0E0E5E5F0E0808182608C93ABE5B0E072
:10222000EBE5F0E080818F778C93ABE5B0E0EBE5F8
:10223000F0E080818F7D8C93CF91DF910895DF93C3
:10224000CF9300D0CDB7DEB79A83898389819A81F5
:1022500090930402809303020F900F90CF91DF912F
:102260000895DF93CF9300D0CDB7DEB79A838983EB
:1022700089819A8190930602809305020F900F90B6
:10228000CF91DF910895DF93CF9300D0CDB7DEB724
:102290009A83898389819A819093080280930702A7
:1022A0000F900F90CF91DF910895DF93CF9300D0DF
:1022B00000D000D0CDB7DEB79A8389837C836B834F
:1022C0005E834D8389819A8190930A0280930902EB
:1022D0008B819C8190930C0280930B028D819E8157
:1022E00090930E0280930D0226960FB6F894DEBFEF
:1022F0000FBECDBFCF91DF91089578941F920F92BA
:102300000FB60F9211242F933F934F935F936F93C8
:102310007F938F939F93AF93BF93EF93FF93DF933D
:10232000CF93CDB7DEB780910202882371F481E0AC
:10233000809302028091090290910A02009729F08D
:10234000E0910902F0910A02099580910202813020
:1023500071F482E08093020280910B0290910C0252
:10236000009729F0E0910B02F0910C020995809101
:102370000202823069F41092020280910D02909163
:102380000E02009729F0E0910D02F0910E020995DE
:10239000CF91DF91FF91EF91BF91AF919F918F917D
:1023A0007F916F915F914F913F912F910F900FBE51
:1023B0000F901F90189578941F920F920FB60F925E
:1023C00011242F933F934F935F936F937F938F933A
:1023D0009F93AF93BF93EF93FF93DF93CF93CDB7CB
:1023E000DEB78091050290910602009729F0E091F6
:1023F0000502F09106020995CF91DF91FF91EF91CF
:10240000BF91AF919F918F917F916F915F914F910C
:102410003F912F910F900FBE0F901F9018957894B9
:102420001F920F920FB60F9211242F933F934F9349
:102430005F936F937F938F939F93AF93BF93EF932C
:10244000FF93DF93CF93CDB7DEB7809107029091D2
:102450000802009729F0E0910702F091080209951F
:10246000CF91DF91FF91EF91BF91AF919F918F91AC
:102470007F916F915F914F913F912F910F900FBE80
:102480000F901F901895DF93CF9300D000D00F923C
:10249000CDB7DEB789836A834B838981282F30E0EB
:1024A0003D832C836C817D8162307105D1F18C81FB
:1024B0009D818330910534F42C813D81213031059B
:1024C00071F094C06C817D816330710509F44BC05B
:1024D0008C819D818430910509F467C087C0AAE38F
:1024E000B0E0EAE3F0E08081482F8A81282F30E0D5
:1024F00081E090E002C0880F991F2A95E2F780954D
:1025000048238B81282F30E08A81882F90E0B90101
:1025100002C0660F771F8A95E2F7CB01842B8C935C
:1025200065C0A7E3B0E0E7E3F0E08081482F8A814F
:10253000282F30E081E090E002C0880F991F2A9593
:10254000E2F7809548238B81282F30E08A81882FFD
:1025500090E0B90102C0660F771F8A95E2F7CB01C0
:10256000842B8C9343C0A4E3B0E0E4E3F0E08081EB
:10257000482F8A81282F30E081E090E002C0880F48
:10258000991F2A95E2F7809548238B81282F30E008
:102590008A81882F90E0B90102C0660F771F8A9563
:1025A000E2F7CB01842B8C9321C0A1E3B0E0E1E3FF
:1025B000F0E08081482F8A81282F30E081E090E090
:1025C00002C0880F991F2A95E2F7809548238B81D6
:1025D000282F30E08A81882F90E0B90102C0660F71
:1025E000771F8A95E2F7CB01842B8C930F900F9085
:1025F0000F900F900F90CF91DF910895DF93CF93BD
:1026000000D000D0CDB7DEB789836A838981282FB7
:1026100030E03C832B838B819C818230910551F18A
:102620002B813C812330310534F48B819C818130B6
:10263000910561F05AC02B813C812330310571F145
:102640008B819C8184309105E9F14FC0ABE3B0E010
:10265000EBE3F0E08081482F8A81282F30E081E091
:1026600090E0022E02C0880F991F0A94E2F7842B93
:102670008C933BC0A8E3B0E0E8E3F0E08081482F12
:102680008A81282F30E081E090E0022E02C0880F7E
:10269000991F0A94E2F7842B8C9327C0A5E3B0E03E
:1026A000E5E3F0E08081482F8A81282F30E081E047
:1026B00090E0022E02C0880F991F0A94E2F7842B43
:1026C0008C9313C0A2E3B0E0E2E3F0E08081482FF6
:1026D0008A81282F30E081E090E0022E02C0880F2E
:1026E000991F0A94E2F7842B8C930F900F900F9010
:1026F0000F90CF91DF910895DF93CF9300D000D05A
:102700000F92CDB7DEB78A836B838A81282F30E0A2
:102710003D832C834C815D8142305105B1F18C8128
:102720009D818330910534F42C813D812130310528
:1027300071F084C04C815D814330510509F443C080
:102740008C819D818430910509F45BC077C0E9E3F9
:10275000F0E08081482F50E08B81282F30E081E02D
:1027600090E002C0880F991F2A95E2F79A0128236A
:1027700039238B81882F90E0A90102C05595479598
:102780008A95E2F7CA01898359C0E6E3F0E08081C7
:10279000482F50E08B81282F30E081E090E002C08C
:1027A000880F991F2A95E2F79A01282339238B81F4
:1027B000882F90E0A90102C0559547958A95E2F7C8
:1027C000CA0189833BC0E3E3F0E08081482F50E0F9
:1027D0008B81282F30E081E090E002C0880F991FA4
:1027E0002A95E2F79A01282339238B81882F90E0DC
:1027F000A90102C0559547958A95E2F7CA018983D8
:102800001DC0E0E3F0E08081482F50E08B81282F4D
:1028100030E081E090E002C0880F991F2A95E2F72E
:102820009A01282339238B81882F90E0A90102C0C7
:10283000559547958A95E2F7CA01898389810F905A
:102840000F900F900F900F90CF91DF910895DF932D
:10285000CF9300D000D0CDB7DEB789836A8389815A
:10286000282F30E03C832B838B819C818230910523
:10287000D9F02B813C812330310534F48B819C814C
:102880008130910561F01EC02B813C8123303105E0
:1028900081F08B819C818430910581F013C0EBE342
:1028A000F0E08A8180830EC0E8E3F0E08A818083D3
:1028B00009C0E5E3F0E08A81808304C0E2E3F0E050
:1028C0008A8180830F900F900F900F90CF91DF91AE
:1028D0000895DF93CF9300D000D0CDB7DEB78983C2
:1028E0006A838981282F30E03C832B838B819C81F4
:1028F00082309105D9F02B813C812330310534F4AD
:102900008B819C818130910561F01EC02B813C81BF
:102910002330310581F08B819C818430910581F0D9
:1029200013C0EAE3F0E08A8180830EC0E7E3F0E0C1
:102930008A81808309C0E4E3F0E08A81808304C057
:10294000E1E3F0E08A8180830F900F900F900F9069
:10295000CF91DF910895DF93CF9300D000D0CDB712
:10296000DEB78A838A81282F30E03C832B838B81DA
:102970009C8182309105D9F02B813C812330310537
:1029800034F48B819C818130910561F01EC02B81D4
:102990003C812330310581F08B819C81843091050D
:1029A00081F013C0E9E3F0E0808189830EC0E6E3A3
:1029B000F0E08081898309C0E3E3F0E080818983CE
:1029C00004C0E0E3F0E08081898389810F900F905B
:1029D0000F900F90CF91DF910895DF93CF9300D0A8
:1029E00000D0CDB7DEB789836A838981282F30E094
:1029F0003C832B838B819C818230910561F12B81FB
:102A00003C812330310534F48B819C8181309105E8
:102A100069F05FC02B813C812330310589F18B81C6
:102A20009C818430910509F440C053C0ABE3B0E011
:102A3000EBE3F0E08081482F8A81282F30E081E0AD
:102A400090E0022E02C0880F991F0A94E2F7809549
:102A500084238C933EC0A8E3B0E0E8E3F0E08081FB
:102A6000482F8A81282F30E081E090E0022E02C0BA
:102A7000880F991F0A94E2F7809584238C9329C0CC
:102A8000A5E3B0E0E5E3F0E08081482F8A81282FBC
:102A900030E081E090E0022E02C0880F991F0A9476
:102AA000E2F7809584238C9314C0A2E3B0E0E2E3C4
:102AB000F0E08081482F8A81282F30E081E090E08B
:102AC000022E02C0880F991F0A94E2F78095842392
:102AD0008C930F900F900F900F90CF91DF910895EE
:102AE000DF93CF9300D00F92CDB7DEB78983898172
:102AF000282F30E03B832A838A819B818230910595
:102B0000D1F02A813B812330310534F48A819B81C5
:102B10008130910561F01AC02A813B812330310553
:102B200071F08A819B818430910569F00FC0EBE3DD
:102B3000F0E010820BC0E8E3F0E0108207C0E5E3AC
:102B4000F0E0108203C0E2E3F0E010820F900F90FB
:102B50000F90CF91DF910895DF93CF9300D000D0F5
:102B6000CDB7DEB789836A838981282F30E03C8323
:102B70002B838B819C818230910551F12B813C818B
:102B80002330310534F48B819C818130910561F0D3
:102B90005AC02B813C812330310571F18B819C819E
:102BA00084309105E9F14FC0ABE3B0E0EBE3F0E036
:102BB0008081482F8A81282F30E081E090E0022E2A
:102BC00002C0880F991F0A94E2F784278C933BC0B8
:102BD000A8E3B0E0E8E3F0E08081482F8A81282F65
:102BE00030E081E090E0022E02C0880F991F0A9425
:102BF000E2F784278C9327C0A5E3B0E0E5E3F0E09B
:102C00008081482F8A81282F30E081E090E0022ED9
:102C100002C0880F991F0A94E2F784278C9313C08F
:102C2000A2E3B0E0E2E3F0E08081482F8A81282F20
:102C300030E081E090E0022E02C0880F991F0A94D4
:102C4000E2F784278C930F900F900F900F90CF9105
:102C5000DF910895DF93CF9300D00F92CDB7DEB709
:102C600089838981282F30E03B832A838A819B8155
:102C700082309105F1F02A813B812330310534F413
:102C80008A819B818130910561F02AC02A813B8134
:102C900023303105B1F08A819B8184309105C9F0E0
:102CA0001FC0ABE3B0E0EBE3F0E0808180958C9354
:102CB00017C0A8E3B0E0E8E3F0E0808180958C9352
:102CC0000FC0A5E3B0E0E5E3F0E0808180958C9350
:102CD00007C0A2E3B0E0E2E3F0E0808180958C934E
:102CE0000F900F900F90CF91DF910895DF93CF93C6
:102CF00000D000D0CDB7DEB789836A838A818F7018
:102D00008A838981282F30E03C832B838B819C81AF
:102D10008230910531F12B813C812330310534F42F
:102D20008B819C818130910561F04AC02B813C816F
:102D30002330310531F18B819C818430910589F1FB
:102D40003FC0ABE3B0E0EBE3F0E08081807F8C93A9
:102D5000ABE3B0E0EBE3F0E090818A81892B8C93C8
:102D60002FC0A8E3B0E0E8E3F0E08081807F8C939F
:102D7000A8E3B0E0E8E3F0E090818A81892B8C93AE
:102D80001FC0A5E3B0E0E5E3F0E08081807F8C9395
:102D9000A5E3B0E0E5E3F0E090818A81892B8C9394
:102DA0000FC0A2E3B0E0E2E3F0E08081807F8C938B
:102DB000A2E3B0E0E2E3F0E090818A81892B8C937A
:102DC0000F900F900F900F90CF91DF910895DF93A8
:102DD000CF9300D000D0CDB7DEB789836A838A81D4
:102DE0008295807F8A838981282F30E03C832B83E2
:102DF0008B819C818230910531F12B813C81233084
:102E0000310534F48B819C818130910561F04AC099
:102E10002B813C812330310531F18B819C818430C1
:102E2000910589F13FC0ABE3B0E0EBE3F0E08081D6
:102E30008F708C93ABE3B0E0EBE3F0E090818A819C
:102E4000892B8C932FC0A8E3B0E0E8E3F0E0808109
:102E50008F708C93A8E3B0E0E8E3F0E090818A8182
:102E6000892B8C931FC0A5E3B0E0E5E3F0E08081FF
:102E70008F708C93A5E3B0E0E5E3F0E090818A8168
:102E8000892B8C930FC0A2E3B0E0E2E3F0E08081F5
:102E90008F708C93A2E3B0E0E2E3F0E090818A814E
:102EA000892B8C930F900F900F900F90CF91DF9103
:102EB0000895DF93CF9300D000D00F92CDB7DEB747
:102EC00089836A834B838B81282F30E03D832C8359
:102ED0008C819D818130910531F02C813D812230A2
:102EE000310531F009C089816A810E94FE1204C057
:102EF00089816A810E94ED140F900F900F900F90BE
:102F00000F90CF91DF910895DF93CF93CDB7DEB7C8
:102F1000A7E2B0E0E7E2F0E0808180648C93A7E272
:102F2000B0E0E7E2F0E080818F778C93A7E2B0E039
:102F3000E7E2F0E080818F7D8C93A6E2B0E0E6E2EC
:102F4000F0E0808181608C93A6E2B0E0E6E2F0E000
:102F500080818D7F8C93A6E2B0E0E6E2F0E0808194
:102F60008B7F8C93A6E2B0E0E6E2F0E0808180689F
:102F70008C93A6E2B0E0E6E2F0E0808188608C937A
:102F8000A6E2B0E0E6E2F0E080818F7D8C93AFE5D1
:102F9000B0E0EFE5F0E0808180688C93CF91DF9125
:102FA0000895DF93CF9300D00F92CDB7DEB789831A
:102FB0008981282F30E03B832A838A819B8183305B
:102FC000910509F49BC02A813B81243031058CF4A2
:102FD0008A819B818130910509F448C02A813B8117
:102FE000223031050CF066C08A819B810097D1F0B8
:102FF00038C12A813B812530310509F4C7C08A8157
:103000009B81853091050CF49DC02A813B8126303F
:10301000310509F4DFC08A819B818730910509F46D
:10302000FDC01FC1A7E2B0E0E7E2F0E080818E7F43
:103030008C93A7E2B0E0E7E2F0E080818D7F8C9393
:10304000A7E2B0E0E7E2F0E080818B7F8C93A7E21B
:10305000B0E0E7E2F0E08081877F8C93A7E2B0E008
:10306000E7E2F0E080818F7E8C93FBC0A7E2B0E0C6
:10307000E7E2F0E0808181608C93A7E2B0E0E7E2D4
:10308000F0E080818D7F8C93A7E2B0E0E7E2F0E092
:1030900080818B7F8C93A7E2B0E0E7E2F0E0808153
:1030A000877F8C93A7E2B0E0E7E2F0E080818F7E3B
:1030B0008C93D7C0A7E2B0E0E7E2F0E080818E7F9A
:1030C0008C93A7E2B0E0E7E2F0E0808182608C932D
:1030D000A7E2B0E0E7E2F0E080818B7F8C93A7E28B
:1030E000B0E0E7E2F0E08081877F8C93A7E2B0E078
:1030F000E7E2F0E080818F7E8C93B3C0A7E2B0E07E
:10310000E7E2F0E0808181608C93A7E2B0E0E7E243
:10311000F0E0808182608C93A7E2B0E0E7E2F0E02B
:1031200080818B7F8C93A7E2B0E0E7E2F0E08081C2
:10313000877F8C93A7E2B0E0E7E2F0E080818F7EAA
:103140008C938FC0A7E2B0E0E7E2F0E080818E7F51
:103150008C93A7E2B0E0E7E2F0E080818D7F8C9372
:10316000A7E2B0E0E7E2F0E0808184608C93A7E220
:10317000B0E0E7E2F0E08081877F8C93A7E2B0E0E7
:10318000E7E2F0E080818F7E8C936BC0A7E2B0E035
:10319000E7E2F0E0808181608C93A7E2B0E0E7E2B3
:1031A000F0E080818D7F8C93A7E2B0E0E7E2F0E071
:1031B000808184608C93A7E2B0E0E7E2F0E0808158
:1031C000877F8C93A7E2B0E0E7E2F0E080818F7E1A
:1031D0008C9347C0A7E2B0E0E7E2F0E080818E7F09
:1031E0008C93A7E2B0E0E7E2F0E0808182608C930C
:1031F000A7E2B0E0E7E2F0E0808184608C93A7E290
:10320000B0E0E7E2F0E08081877F8C93A7E2B0E056
:10321000E7E2F0E080818F7E8C9323C0A7E2B0E0EC
:10322000E7E2F0E0808181608C93A7E2B0E0E7E222
:10323000F0E0808182608C93A7E2B0E0E7E2F0E00A
:10324000808184608C93A7E2B0E0E7E2F0E08081C7
:10325000877F8C93A7E2B0E0E7E2F0E080818F7E89
:103260008C93A6E2B0E0E6E2F0E0808180648C938B
:103270000F900F900F90CF91DF910895DF93CF9330
:10328000CDB7DEB7E4E2F0E080819181CF91DF91AC
:103290000895DF93CF9300D0CDB7DEB79A838983AB
:1032A00089819A8190931202809311020F900F905E
:1032B000CF91DF91089578941F920F920FB60F92DD
:1032C00011242F933F934F935F936F937F938F932B
:1032D0009F93AF93BF93EF93FF93DF93CF93CDB7BC
:1032E000DEB78091110290911202009729F0E091CF
:1032F0001102F09112020995CF91DF91FF91EF91A8
:10330000BF91AF919F918F917F916F915F914F91FD
:103310003F912F910F900FBE0F901F901895DF9344
:10332000CF9300D00F92CDB7DEB789838981282F44
:1033300030E03B832A838A819B8182309105A9F00A
:103340002A813B8123303105D9F08A819B818130EC
:10335000910501F584E062E040E00E94431284E0C0
:1033600062E041E00E94591715C081E061E040E051
:103370000E94431281E061E041E00E9459170AC0B7
:1033800081E062E040E00E94431281E062E041E0BF
:103390000E9459170F900F900F90CF91DF910895D1
:1033A000DF93CF93CDB7DEB7EC970FB6F894DEBFBF
:1033B0000FBECDBF8AAF81E089AF8AAD282F30E044
:1033C0003CAF2BAF8BAD9CAD8230910509F48EC024
:1033D0002BAD3CAD2330310509F40AC18BAD9CAD5A
:1033E0008130910509F084C184E062E00E947C1381
:1033F000882309F07DC180E090E0A0EAB1E48DABC4
:103400009EABAFABB8AF6DA97EA98FA998AD20E0F8
:1034100030E04AEF54E40E941F02DC01CB0189AB8B
:103420009AABABABBCAB69A97AA98BA99CA920E0EC
:1034300030E040E85FE30E94550488232CF481E0EB
:1034400090E098AB8FA73FC069A97AA98BA99CA9E6
:1034500020E03FEF4FE757E40E94F50318164CF5C4
:103460006DA97EA98FA998AD20E030E040E251E43B
:103470000E941F02DC01CB01BC01CD010E9449006A
:10348000DC01CB0198AB8FA70FC088EC90E09EA722
:103490008DA78DA59EA50197F1F79EA78DA78FA556
:1034A00098A9019798AB8FA78FA598A9009769F75E
:1034B00014C069A97AA98BA99CA90E944900DC01C2
:1034C000CB0198AB8FA78FA598A99CA78BA78BA59D
:1034D0009CA50197F1F79CA78BA784E062E00E946E
:1034E0007C13882309F004C119AE02C181E061E0B8
:1034F0000E947C13882309F0FBC080E090E0A0EAE2
:10350000B1E48FA398A7A9A7BAA76FA178A589A5A9
:103510009AA520E030E04AEF54E40E941F02DC014B
:10352000CB018BA39CA3ADA3BEA36BA17CA18DA15A
:103530009EA120E030E040E85FE30E94550488232C
:103540002CF481E090E09AA389A33FC06BA17CA1F9
:103550008DA19EA120E03FEF4FE757E40E94F503C5
:1035600018164CF56FA178A589A59AA520E030E042
:1035700040E251E40E941F02DC01CB01BC01CD01FD
:103580000E944900DC01CB019AA389A30FC088ECFB
:1035900090E098A38F8F8F8D98A10197F1F798A352
:1035A0008F8F89A19AA101979AA389A389A19AA132
:1035B000009769F714C06BA17CA18DA19EA10E9408
:1035C0004900DC01CB019AA389A389A19AA19E8F0E
:1035D0008D8F8D8D9E8D0197F1F79E8F8D8F81E060
:1035E00061E00E947C13882309F082C019AE80C07C
:1035F00081E062E00E947C13882309F079C080E0BA
:1036000090E0A0EAB1E4898F9A8FAB8FBC8F698D6F
:103610007A8D8B8D9C8D20E030E04AEF54E40E943F
:103620001F02DC01CB018D8B9E8BAF8BB88F6D8918
:103630007E898F89988D20E030E040E85FE30E942A
:10364000550488232CF481E090E09C8B8B8B3FC049
:103650006D897E898F89988D20E03FEF4FE757E491
:103660000E94F50318164CF5698D7A8D8B8D9C8D13
:1036700020E030E040E251E40E941F02DC01CB0177
:10368000BC01CD010E944900DC01CB019C8B8B8BDE
:103690000FC088EC90E09A8B898B89899A89019771
:1036A000F1F79A8B898B8B899C8901979C8B8B8BEB
:1036B0008B899C89009769F714C06D897E898F89F1
:1036C000988D0E944900DC01CB019C8B8B8B8B89F0
:1036D0009C89988B8F878F8598890197F1F7988BB4
:1036E0008F8781E062E00E947C13882309F419AE81
:1036F00080E090E0A0EAB1E48B879C87AD87BE872D
:103700006B857C858D859E8520E030E04AEF54E412
:103710000E941F02DC01CB018F839887A987BA879B
:103720006F81788589859A8520E030E040E85FE305
:103730000E94550488232CF481E090E09E838D83C1
:103740003FC06F81788589859A8520E03FEF4FE7FC
:1037500057E40E94F50318164CF56B857C858D8522
:103760009E8520E030E040E251E40E941F02DC012F
:10377000CB01BC01CD010E944900DC01CB019E833D
:103780008D830FC088EC90E09C838B838B819C8120
:103790000197F1F79C838B838D819E8101979E8396
:1037A0008D838D819E81009769F714C06F81788524
:1037B00089859A850E944900DC01CB019E838D8317
:1037C0008D819E819A83898389819A810197F1F7FE
:1037D0009A83898389ADEC960FB6F894DEBF0FBE4D
:1037E000CDBFCF91DF910895DF93CF93CDB7DEB7F3
:1037F000AB970FB6F894DEBF0FBECDBF8BA784E0AA
:1038000066E00E94ED1482E06BA50E94271484E01C
:1038100067E00E94ED1484E065E00E94FE1280E003
:1038200090E0A0E0B0E48FA398A7A9A7BAA76FA1E2
:1038300078A589A59AA520E030E04AEF54E40E94DB
:103840001F02DC01CB018BA39CA3ADA3BEA36BA184
:103850007CA18DA19EA120E030E040E85FE30E94C2
:10386000550488232CF481E090E09AA389A33FC0FB
:103870006BA17CA18DA19EA120E03FEF4FE757E413
:103880000E94F50318164CF56FA178A589A59AA595
:1038900020E030E040E251E40E941F02DC01CB0155
:1038A000BC01CD010E944900DC01CB019AA389A390
:1038B0000FC088EC90E098A38F8F8F8D98A101970F
:1038C000F1F798A38F8F89A19AA101979AA389A351
:1038D00089A19AA1009769F714C06BA17CA18DA161
:1038E0009EA10E944900DC01CB019AA389A389A172
:1038F0009AA19E8F8D8F8D8D9E8D0197F1F79E8F52
:103900008D8F84E065E00E94ED1480E090E0A0E0FF
:10391000B0E4898F9A8FAB8FBC8F698D7A8D8B8D38
:103920009C8D20E030E04AEF54E40E941F02DC014D
:10393000CB018D8B9E8BAF8BB88F6D897E898F89E4
:10394000988D20E030E040E85FE30E945504882332
:103950002CF481E090E09C8B8B8B3FC06D897E893D
:103960008F89988D20E03FEF4FE757E40E94F503E1
:1039700018164CF5698D7A8D8B8D9C8D20E030E08A
:1039800040E251E40E941F02DC01CB01BC01CD01E9
:103990000E944900DC01CB019C8B8B8B0FC088EC13
:1039A00090E09A8B898B89899A890197F1F79A8B94
:1039B000898B8B899C8901979C8B8B8B8B899C89AC
:1039C000009769F714C06D897E898F89988D0E9450
:1039D0004900DC01CB019C8B8B8B8B899C89988B5C
:1039E0008F878F8598890197F1F7988B8F8780E073
:1039F00090E0A0E8BFE38B879C87AD87BE876B858F
:103A00007C858D859E8520E030E04AEF54E40E945D
:103A10001F02DC01CB018F839887A987BA876F814A
:103A2000788589859A8520E030E040E85FE30E9450
:103A3000550488232CF481E090E09E838D833FC061
:103A40006F81788589859A8520E03FEF4FE757E4BD
:103A50000E94F50318164CF56B857C858D859E8537
:103A600020E030E040E251E40E941F02DC01CB0183
:103A7000BC01CD010E944900DC01CB019E838D83F6
:103A80000FC088EC90E09C838B838B819C81019795
:103A9000F1F79C838B838D819E8101979E838D831B
:103AA0008D819E81009769F714C06F817885898523
:103AB0009A850E944900DC01CB019E838D838D8114
:103AC0009E819A83898389819A810197F1F79A83EC
:103AD0008983AB960FB6F894DEBF0FBECDBFCF91F2
:103AE000DF9108950F931F93DF93CF93CDB7DEB788
:103AF000C654D0400FB6F894DEBF0FBECDBFFE0156
:103B0000ED5BFF4F80E090E0A8E4B3E48083918315
:103B1000A283B3838E01015C1F4FFE01ED5BFF4F5B
:103B2000608171818281938120E030E04AEF54E42A
:103B30000E941F02DC01CB01F80180839183A283E4
:103B4000B383FE01FF96608171818281938120E0C1
:103B500030E040E85FE30E94550488232CF481E0C4
:103B600090E09EAF8DAF46C0FE01FF9660817181EF
:103B70008281938120E03FEF4FE757E40E94F503F5
:103B8000181664F5FE01ED5BFF4F60817181828143
:103B9000938120E030E040E251E40E941F02DC010A
:103BA000CB01BC01CD010E944900DC01CB019EAFDD
:103BB0008DAF0FC088EC90E09CAF8BAF8BAD9CAD10
:103BC0000197F1F79CAF8BAF8DAD9EAD01979EAF86
:103BD0008DAF8DAD9EAD009769F716C0FE01FF96C3
:103BE00060817181828193810E944900DC01CB0157
:103BF0009EAF8DAF8DAD9EAD9AAF89AF89AD9AADB9
:103C00000197F1F79AAF89AF82E06FEF0E946914D4
:103C100084E067E041E00E94431284E065E041E017
:103C20000E94431284E066E041E00E94431288E370
:103C30000E94F41B80E090E0A0E8BFE38DAB9EAB58
:103C4000AFABB8AF6DA97EA98FA998AD20E030E0E9
:103C50004AEF54E40E941F02DC01CB0189AB9AAB0E
:103C6000ABABBCAB69A97AA98BA99CA920E030E0D9
:103C700040E85FE30E94550488232CF481E090E043
:103C800098AB8FA73FC069A97AA98BA99CA920E00E
:103C90003FEF4FE757E40E94F50318164CF56DA966
:103CA0007EA98FA998AD20E030E040E251E40E9467
:103CB0001F02DC01CB01BC01CD010E944900DC01E7
:103CC000CB0198AB8FA70FC088EC90E09EA78DA783
:103CD0008DA59EA50197F1F79EA78DA78FA598A901
:103CE000019798AB8FA78FA598A9009769F714C083
:103CF00069A97AA98BA99CA90E944900DC01CB0182
:103D000098AB8FA78FA598A99CA78BA78BA59CA5DF
:103D10000197F1F79CA78BA78EE00E94F41B80E02F
:103D200090E0A0E8BFE38FA398A7A9A7BAA76FA1C7
:103D300078A589A59AA520E030E04AEF54E40E94D6
:103D40001F02DC01CB018BA39CA3ADA3BEA36BA17F
:103D50007CA18DA19EA120E030E040E85FE30E94BD
:103D6000550488232CF481E090E09AA389A33FC0F6
:103D70006BA17CA18DA19EA120E03FEF4FE757E40E
:103D80000E94F50318164CF56FA178A589A59AA590
:103D900020E030E040E251E40E941F02DC01CB0150
:103DA000BC01CD010E944900DC01CB019AA389A38B
:103DB0000FC088EC90E098A38F8F8F8D98A101970A
:103DC000F1F798A38F8F89A19AA101979AA389A34C
:103DD00089A19AA1009769F714C06BA17CA18DA15C
:103DE0009EA10E944900DC01CB019AA389A389A16D
:103DF0009AA19E8F8D8F8D8D9E8D0197F1F79E8F4D
:103E00008D8F81E00E94F41B80E090E0A0E2B1E49D
:103E1000898F9A8FAB8FBC8F698D7A8D8B8D9C8D9E
:103E200020E030E04AEF54E40E941F02DC01CB01A5
:103E30008D8B9E8BAF8BB88F6D897E898F89988D86
:103E400020E030E040E85FE30E94550488232CF432
:103E500081E090E09C8B8B8B3FC06D897E898F8940
:103E6000988D20E03FEF4FE757E40E94F5031816C6
:103E70004CF5698D7A8D8B8D9C8D20E030E040E291
:103E800051E40E941F02DC01CB01BC01CD010E9464
:103E90004900DC01CB019C8B8B8B0FC088EC90E040
:103EA0009A8B898B89899A890197F1F79A8B898BEB
:103EB0008B899C8901979C8B8B8B8B899C89009724
:103EC00069F714C06D897E898F89988D0E94490099
:103ED000DC01CB019C8B8B8B8B899C89988B8F878A
:103EE0008F8598890197F1F7988B8F8786E00E94DC
:103EF000F41B80E090E0A0E8BFE38B879C87AD8750
:103F0000BE876B857C858D859E8520E030E04AEFFD
:103F100054E40E941F02DC01CB018F839887A9879C
:103F2000BA876F81788589859A8520E030E040E8FE
:103F30005FE30E94550488232CF481E090E09E8387
:103F40008D833FC06F81788589859A8520E03FEF1A
:103F50004FE757E40E94F50318164CF56B857C85F6
:103F60008D859E8520E030E040E251E40E941F02F2
:103F7000DC01CB01BC01CD010E944900DC01CB0179
:103F80009E838D830FC088EC90E09C838B838B8114
:103F90009C810197F1F79C838B838D819E81019792
:103FA0009E838D838D819E81009769F714C06F81F8
:103FB000788589859A850E944900DC01CB019E8322
:103FC0008D838D819E819A83898389819A810197CE
:103FD000F1F79A838983CA5BDF4F0FB6F894DEBF8F
:103FE0000FBECDBFCF91DF911F910F910895DF9349
:103FF000CF93CDB7DEB7AB970FB6F894DEBF0FBE49
:10400000CDBF8BA784E066E00E94ED1482E06BA533
:104010000E94271484E067E00E94FE1284E065E0BD
:104020000E94FE1280E090E0A0E0B0E48FA398A789
:10403000A9A7BAA76FA178A589A59AA520E030E025
:104040004AEF54E40E941F02DC01CB018BA39CA326
:10405000ADA3BEA36BA17CA18DA19EA120E030E009
:1040600040E85FE30E94550488232CF481E090E04F
:104070009AA389A33FC06BA17CA18DA19EA120E042
:104080003FEF4FE757E40E94F50318164CF56FA178
:1040900078A589A59AA520E030E040E251E40E948D
:1040A0001F02DC01CB01BC01CD010E944900DC01F3
:1040B000CB019AA389A30FC088EC90E098A38F8FBF
:1040C0008F8D98A10197F1F798A38F8F89A19AA15D
:1040D00001979AA389A389A19AA1009769F714C0AF
:1040E0006BA17CA18DA19EA10E944900DC01CB01A6
:1040F0009AA389A389A19AA19E8F8D8F8D8D9E8D64
:104100000197F1F79E8F8D8F84E065E00E94ED149A
:1041100080E090E0A0E0B0E4898F9A8FAB8FBC8FF5
:10412000698D7A8D8B8D9C8D20E030E04AEF54E4D0
:104130000E941F02DC01CB018D8B9E8BAF8BB88F51
:104140006D897E898F89988D20E030E040E85FE3BB
:104150000E94550488232CF481E090E09C8B8B8B8B
:104160003FC06D897E898F89988D20E03FEF4FE7B2
:1041700057E40E94F50318164CF5698D7A8D8B8DE6
:104180009C8D20E030E040E251E40E941F02DC01FF
:10419000CB01BC01CD010E944900DC01CB019C8B0D
:1041A0008B8B0FC088EC90E09A8B898B89899A89D8
:1041B0000197F1F79A8B898B8B899C8901979C8B4E
:1041C0008B8B8B899C89009769F714C06D897E89D8
:1041D0008F89988D0E944900DC01CB019C8B8B8BD1
:1041E0008B899C89988B8F878F8598890197F1F7A8
:1041F000988B8F8780E090E0A0E8BFE38B879C8757
:10420000AD87BE876B857C858D859E8520E030E0FF
:104210004AEF54E40E941F02DC01CB018F83988790
:10422000A987BA876F81788589859A8520E030E0F3
:1042300040E85FE30E94550488232CF481E090E07D
:104240009E838D833FC06F81788589859A8520E024
:104250003FEF4FE757E40E94F50318164CF56B85C6
:104260007C858D859E8520E030E040E251E40E940F
:104270001F02DC01CB01BC01CD010E944900DC0121
:10428000CB019E838D830FC088EC90E09C838B8351
:104290008B819C810197F1F79C838B838D819E811B
:1042A00001979E838D838D819E81009769F714C04D
:1042B0006F81788589859A850E944900DC01CB0150
:1042C0009E838D838D819E819A83898389819A8142
:1042D0000197F1F79A838983AB960FB6F894DEBF06
:1042E0000FBECDBFCF91DF910895DF93CF9300D064
:1042F0000F92CDB7DEB79B838A8319820EC0898166
:10430000282F30E08A819B81FC01E20FF31F80811E
:104310000E94F71F89818F5F89838981282F30E070
:104320008A819B81FC01E20FF31F8081882339F78A
:104330000F900F900F90CF91DF910895DF93CF935F
:10434000CDB7DEB7A4970FB6F894DEBF0FBECDBFD2
:1043500069A37AA38BA39CA389A19AA1ABA1BCA1B9
:10436000813026E3920725E6A20724ECB20798F4F1
:1043700089A19AA1ABA1BCA180302AEC92072AE9BD
:10438000A2072BE3B20738F00E94962280E690E065
:104390000E9475211AC080E2FE013196DF01282FAC
:1043A0001D922A95E9F789A19AA1ABA1BCA19E0112
:1043B0002F5F3F4FBC01CD01A9012AE030E00E94F0
:1043C000C526CE0101960E947521A4960FB6F894D9
:1043D000DEBF0FBECDBFCF91DF910895EF92FF9268
:1043E0000F931F93DF93CF93CDB7DEB728970FB608
:1043F000F894DEBF0FBECDBF6C837D838E839F8319
:10440000488781E090E09B838A8319826C817D815B
:104410008E819F810E944900DC01CB01BC01CD014E
:104420000E949E218CE20E94F71F198211C08A818E
:104430009B819C01220F331FC901880F991F880F90
:10444000991F820F931F9B838A8389818F5F898342
:1044500099818885981758F36C817D818E819F8121
:104460000E944900DC01CB01BC01CD010E94D904AE
:104470009B01AC016C817D818E819F810E94C10175
:10448000DC01CB017C018D018A819B81CC01A0E004
:10449000B0E0BC01CD010E94D9049B01AC01C80170
:1044A000B7010E941F02DC01CB01BC01CD010E94BB
:1044B0004900DC01CB01BC01CD010E949E21289660
:1044C0000FB6F894DEBF0FBECDBFCF91DF911F9125
:1044D0000F91FF90EF900895DF93CF9300D00F924C
:1044E000CDB7DEB78A836B838A818823C9F08A813E
:1044F0008330B0F48B81882399F08B81813180F4F3
:104500008A81813021F48B818158898306C08A8118
:10451000823019F48B818154898389810E94F41B34
:104520000F900F900F90CF91DF910895DF93CF936D
:10453000CDB7DEB781E00E94F41BCF91DF910895E3
:10454000DF93CF93CDB7DEB78CE10E94F41BCF9100
:10455000DF910895DF93CF93CDB7DEB788E10E9456
:10456000F41BCF91DF910895DF93CF9300D000D05B
:1045700000D0CDB7DEB79B838A836C834D832E83B7
:104580008C81882F90E00896880F991F880F991FBB
:10459000880F991F0E94F41B19820EC08981282F51
:1045A00030E08A819B81FC01E20FF31F80810E9431
:1045B000F71F89818F5F89838981883078F38D81A6
:1045C0006E810E946C228C810E94F71F26960FB686
:1045D000F894DEBF0FBECDBFCF91DF910895DF937A
:1045E000CF93CDB7DEB781E06FE00E94691481E020
:1045F0006FE00E94691481E06FEF0E942714CF9151
:10460000DF910895DF93CF93CDB7DEB763970FB6F1
:10461000F894DEBF0FBECDBF188A8FEF8F87B3C06F
:104620001B8AADC081E06B890E94ED1484E08A8B07
:104630009BC081E06A890E947C13898B89898823C9
:1046400009F08FC081E0888B8B89482F50E08A89E0
:10465000882F90E09C0124503040CA01880F991F98
:10466000880F991F820F931FFC01ED56FE4F80812A
:104670008F8781E06A890E947C138823D1F380E0D0
:1046800090E0A0EAB1E48B879C87AD87BE876B85FD
:104690007C858D859E8520E030E04AEF54E40E94C1
:1046A0001F02DC01CB018F839887A987BA876F81AE
:1046B000788589859A8520E030E040E85FE30E94B4
:1046C000550488232CF481E090E09E838D833FC0C5
:1046D0006F81788589859A8520E03FEF4FE757E421
:1046E0000E94F50318164CF56B857C858D859E859B
:1046F00020E030E040E251E40E941F02DC01CB01E7
:10470000BC01CD010E944900DC01CB019E838D8359
:104710000FC088EC90E09C838B838B819C810197F8
:10472000F1F79C838B838D819E8101979E838D837E
:104730008D819E81009769F714C06F817885898586
:104740009A850E944900DC01CB019E838D838D8177
:104750009E819A83898389819A810197F1F79A834F
:1047600089838A898F5F8A8B8A89883008F461CF30
:1047700081E06B890E94FE128B898F5F8B8B8B8906
:10478000843008F44FCF8889882309F449CF8F8576
:1047900063960FB6F894DEBF0FBECDBFCF91DF9109
:1047A00008950F931F93DF93CF93CDB7DEB7A197F3
:1047B0000FB6F894DEBF0FBECDBFCE0143969E8FDD
:1047C0008D8FEEE6F0E0F8A3EF8FF5E0F9A3EF8D23
:1047D000F8A100808F8D98A1019698A38F8FED8D01
:1047E000FE8D00828D8D9E8D01969E8F8D8F99A15D
:1047F000915099A3E9A1EE2351F71A8A81E0888BA1
:104800000E94870F0E94721D0E94EF2283E390E0B6
:104810000E9447072EE630E080E0B9010E94411077
:104820002EE831E080E0B9010E9405100E940223C9
:10483000898B89898D3369F08A89282F30E0CE01F0
:104840004896FC01E20FF31F8989808389890E94C1
:10485000F71F8A898F5F8A8B89898D3339F71A8A86
:104860000E949622CE0148960E94BC268C01CE0161
:1048700043960E94BC268017910710F4188A32C014
:104880001F8619C08F85282F30E0CE014896FC0185
:10489000E20FF31F40818F85282F30E0CE01439631
:1048A000FC01E20FF31F8081481711F0188A1AC02B
:1048B0008F858F5F8F878F85082F10E0CE014396FD
:1048C0000E94BC2608171907E8F20CC08A89282F15
:1048D00030E0CE014896FC01E20FF31F10828A8976
:1048E0008F5F8A8B8A89282F30E0CE014896FC01A1
:1048F000E20FF31F8081882349F71A8A8889882369
:1049000031F581E0888BA4E3B0E0E4E3F0E080815E
:1049100080618C93A5E3B0E0E5E3F0E08081806105
:104920008C930E940A2680910F0290911002FAE067
:10493000893B9F07C0F31092100210920F02A5E36B
:10494000B0E0E5E3F0E080818F7E8C936FCF8889C3
:10495000813009F06BCFA4E3B0E0E4E3F0E08081C4
:1049600088608C93A5E3B0E0E5E3F0E080818860A7
:104970008C930E940A2680910F02909110022AE0E7
:10498000893B9207C0F31092100210920F02A5E328
:10499000B0E0E5E3F0E08081877F8C930E944C25B6
:1049A00081E40E94880783E790E00E94752180E0FF
:1049B00090E8ABEBB4E48B879C87AD87BE876B85B3
:1049C0007C858D859E8520E030E04AEF54E40E948E
:1049D0001F02DC01CB018F839887A987BA876F817B
:1049E000788589859A8520E030E040E85FE30E9481
:1049F000550488232CF481E090E09E838D833FC092
:104A00006F81788589859A8520E03FEF4FE757E4ED
:104A10000E94F50318164CF56B857C858D859E8567
:104A200020E030E040E251E40E941F02DC01CB01B3
:104A3000BC01CD010E944900DC01CB019E838D8326
:104A40000FC088EC90E09C838B838B819C810197C5
:104A5000F1F79C838B838D819E8101979E838D834B
:104A60008D819E81009769F714C06F817885898553
:104A70009A850E944900DC01CB019E838D838D8144
:104A80009E819A83898389819A810197F1F79A831C
:104A900089830E949622CACEDF93CF93CDB7DEB72B
:104AA0002E970FB6F894DEBF0FBECDBFAFE4B0E0D7
:104AB000EFE4F0E0808182608C93AEE4B0E0EEE45D
:104AC000F0E0808188618C93AEE4B0E0EEE4F0E049
:104AD000808182608C93AFE4B0E0EFE4F0E080810D
:104AE00080628C93E6E4F0E08FE19EE49183808322
:104AF000ECE4F0E011821082A1E3B0E0E1E3F0E049
:104B0000808180618C93E8E4F0E080ED97E0918310
:104B1000808380E090E0AAE7B4E48B879C87AD8730
:104B2000BE876B857C858D859E8520E030E04AEFD1
:104B300054E40E941F02DC01CB018F839887A98770
:104B4000BA876F81788589859A8520E030E040E8D2
:104B50005FE30E94550488232CF481E090E09E835B
:104B60008D833FC06F81788589859A8520E03FEFEE
:104B70004FE757E40E94F50318164CF56B857C85CA
:104B80008D859E8520E030E040E251E40E941F02C6
:104B9000DC01CB01BC01CD010E944900DC01CB014D
:104BA0009E838D830FC088EC90E09C838B838B81E8
:104BB0009C810197F1F79C838B838D819E81019766
:104BC0009E838D838D819E81009769F714C06F81CC
:104BD000788589859A850E944900DC01CB019E83F6
:104BE0008D838D819E819A83898389819A810197A2
:104BF000F1F79A838983E8E4F0E08CED95E0918306
:104C000080832E960FB6F894DEBF0FBECDBFCF9136
:104C1000DF910895DF93CF93CDB7DEB7E2E5F0E003
:104C200010821092100210920F02A3E5B0E0E3E5AB
:104C3000F0E0808182608C93A9E5B0E0E9E5F0E0E6
:104C4000808181608C937894CF91DF9108951F9239
:104C50000F920FB60F9211248F939F93DF93CF93F0
:104C6000CDB7DEB780910F0290911002019690931C
:104C7000100280930F02CF91DF919F918F910F903F
:104C80000FBE0F901F901895629FD001739FF00187
:104C9000829FE00DF11D649FE00DF11D929FF00DCC
:104CA000839FF00D749FF00D659FF00D9927729F03
:104CB000B00DE11DF91F639FB00DE11DF91FBD018E
:104CC000CF0111240895A1E21A2EAA1BBB1BFD01DE
:104CD0000DC0AA1FBB1FEE1FFF1FA217B307E407DB
:104CE000F50720F0A21BB30BE40BF50B661F771F33
:104CF000881F991F1A9469F7609570958095909513
:104D00009B01AC01BD01CF0108952F923F924F92BC
:104D10005F926F927F928F929F92AF92BF92CF924B
:104D2000DF92EF92FF920F931F93CF93DF93CDB754
:104D3000DEB7CA1BDB0B0FB6F894DEBF0FBECDBFCC
:104D400009942A88398848885F846E847D848C849D
:104D50009B84AA84B984C884DF80EE80FD800C81A6
:104D60001B81AA81B981CE0FD11D0FB6F894DEBF89
:104D70000FBECDBFED010895FC0101900020E9F7C1
:104D8000809590958E0F9F1F0895FA01CF93FF9302
:104D9000EF93223044F1253234F5C22FE894CA3023
:104DA00049F497FB3EF490958095709561957F4FFF
:104DB0008F4F9F4F2C2F332744275527FF93EF9377
:104DC0000E946326EF91FF91605D6A330CF0695D8C
:104DD0006193B901CA01605070408040904051F722
:104DE00016F4CDE2C19310828F919F91CF910C94D4
:104DF000F926DC01FC01672F71917723E1F73297E7
:104E000004C07C916D9370836291AE17BF07C8F3A5
:064E10000895F894FFCFA5
:104E16004F766572666C6F77202121212100313231
:104E2600333400202020202D2D204F50454E202D9C
:104E36002D202020200000000000000000000001BE
:104E46000202030303030404040404040404050522
:104E560005050505050505050505050505050606FA
:104E660006060606060606060606060606060606DC
:104E760006060606060606060606060606060707CA
:104E860007070707070707070707070707070707AC
:104E9600070707070707070707070707070707079C
:104EA600070707070707070707070707070707078C
:104EB600070707070707070707070707070708087A
:104EC600080808080808080808080808080808085C
:104ED600080808080808080808080808080808084C
:104EE600080808080808080808080808080808083C
:104EF600080808080808080808080808080808082C
:104F0600080808080808080808080808080808081B
:104F1600080808080808080808080808080808080B
:104F260008080808080808080808080808080808FB
:104F360008080808080808080808080808082020BB
:104F460020200037343144383532303936333D2F5E
:104F56002A2D2B37343144383532303936333D2F0C
:044F66002A2D2B00C5
:00000001FF
